:020000040000FA
:0400000016EF7FF088
:10FE2C00000EF86E000191EF7FF0000E046E000ED4
:10FE3C00036E0DD0000E056E00F000F000F000F027
:10FE4C0000F0052AC70E0564F7D7034A042A0150AF
:10FE5C00035C02500458D8B01200ECD7000E0D6EA3
:10FE6C00000E0C6E0A500B10D8B41CD0010E0E6E86
:10FE7C0004D0D8900A360B360E2A0BAEFAD7D8908F
:10FE8C000C360D360A50085C0B500958D8A005D01A
:10FE9C000A50085E0B50095A0C80D8900B320A326B
:10FEAC000E2EEDD70CC008F00DC009F01200076E35
:10FEBC0007D0010E03D0050E01D0090EC26E11D071
:10FECC000750036E046A0450000AD8A40AD00350E9
:10FEDC00000AD8B4EED7010AD8B4EDD7030AD8B4C7
:10FEEC00ECD7C282C2B2FED7C3CF03F0060E046EAB
:10FEFC00D8900332042EFCD70350C4CF05F0066A09
:10FF0C00D89005360636D890053606360510016EA3
:10FF1C000650026E1200010EC26E0B0EC16E010E67
:10FF2C00C06EC30E926E3F0E936E010E946E000E59
:10FF3C00956E000E966E000E136E000E126E000E75
:10FF4C00836E000E5DEC7FF001C008F002C009F07A
:10FF5C00000E0B6E0A0E0A6E34EC7FF008C012F025
:10FF6C0009C013F012C00FF0010E026EF40E016EF8
:10FF7C001BEC7FF03BD0000E116E000E106E010ECC
:10FF8C00836E010E026EF40E016E1BEC7FF0000E00
:10FF9C00836E010E026EF40E016E1BEC7FF0104AA4
:10FFAC00112A11BEECD7115006E1050E105CD8B029
:10FFBC0002D0E5D7836881B6FDD7000E5DEC7FF0EB
:10FFCC0001C008F002C009F0000E0B6E0A0E0A6E9A
:10FFDC0034EC7FF008C012F009C013F012C00FF01F
:10FFEC00010E026EF40E016E1BEC7FF0330E0F60EF
:04FFFC00C2D7A5D7EC
:020000040020DA
:08000000FFFFFFFFFFFFFFFF00
:020000040030CA
:0E000000FF06181EFF8180FF0FC00FE00F40AB
:00000001FF
