:020000040000FA
:040000004CEF7EF053
:10FC9800000EF86E000188EF7EF0176E1750D8B48A
:10FCA8000BEC7FF01704D8A41200B9EC7FF0120017
:10FCB80001500302F3CF05F0F4CF06F0015004021F
:10FCC800F350062602500302F350062605C001F041
:10FCD80006C002F01200000E046E000E036E0DD076
:10FCE800000E056E00F000F000F000F000F0052AAC
:10FCF800C70E0564F7D7034A042A0150035C025073
:10FD08000458D8B01200ECD7010EC26E0B0EC16EAB
:10FD1800010EC06EC30E926E3F0E936E010E946E6E
:10FD2800000E956E000E966E000E186E185051EC6F
:10FD38007EF081B602D0180602D081A8182A020ED9
:10FD48001818D8A402D0000E186E1828D8A4EED718
:10FD5800010EEBD7000E0D6E000E0C6E0A500B1044
:10FD6800D8B41CD0010E0E6E04D0D8900A360B36CB
:10FD78000E2A0BAEFAD7D8900C360D360A50085C0E
:10FD88000B500958D8A005D00A50085E0B50095AE4
:10FD98000C80D8900B320A320E2EEDD70CC008F02A
:10FDA8000DC009F01200076E07D0010E03D0050E32
:10FDB80001D0090EC26E11D00750036E046A0450B8
:10FDC800000AD8A40AD00350000AD8B4EED7010A12
:10FDD800D8B4EDD7030AD8B4ECD7C282C2B2FED7E2
:10FDE800C3CF03F0060E046ED8900332042EFCD75E
:10FDF8000350C4CF05F0066AD89005360636D89069
:10FE0800053606360510016E0650026E1200000E09
:10FE1800146E2CD0010ED7EC7EF001C008F002C0A1
:10FE280009F0000E0B6EDC0E0A6EAEEC7EF008C018
:10FE38000FF009C010F00FC001F010C002F0000E62
:10FE4800046EC80E036E5CEC7EF001C011F002C0B7
:10FE580012F0D89014301418136E13C083FF11C019
:10FE680001F012C002F06FEC7EF0142A81A6120095
:10FE780081A81200CFD7000E066E02AE06D0016C24
:10FE8800021ED8B0022A010E066E04AE04D0036C1E
:10FE9800041ED8B0042A03500410D8B418D0010E98
:10FEA800056E04D0D89003360436052A04AEFAD776
:10FEB8000350015C04500258D8A004D00350015EDE
:10FEC8000450025AD89004320332052EF1D7065056
:10FED800D8B404D0016C021ED8B0022A01C001F0C7
:10FEE80002C002F01200000E066E04AE06D0036CCB
:10FEF800041ED8B0042A010E066E02AE06D0016CAC
:10FF0800021ED8B0022A010E061A000E086E000E54
:10FF1800076E03500410D8B41CD0010E056E04D02F
:10FF2800D89003360436052A04AEFAD7D890073697
:10FF380008360350015C04500258D8A005D003507D
:10FF4800015E0450025A0780D89004320332052E0D
:10FF5800EDD70650D8B404D0076C081ED8B0082ACC
:10FF680007C001F008C002F01200000E166E3FD064
:10FF7800010ED7EC7EF001C008F002C009F0000EB7
:10FF88000B6EDC0E0A6EAEEC7EF008C011F009C0F4
:10FF980012F01150C80DF3CF13F0F4CF14F0630E24
:10FFA800166402D0000E166E16C001F0026A000E2A
:10FFB800046E0A0E036E3FEC7FF001C00FF002C022
:10FFC80010F016C001F0026A000E046E0A0E036EED
:10FFD80077EC7FF00138F00B0F10156E15C083FF1A
:10FFE80013C001F014C002F06FEC7EF0162A81A64F
:08FFF800120081A81200BCD721
:020000040020DA
:08000000FFFFFFFFFFFFFFFF00
:020000040030CA
:0E000000FF06181EFF8180FF0FC00FE00F40AB
:00000001FF
