:020000040000FA
:04000000FCEF0FF012
:101000000020202020253032693A25303269202006
:10101000202020202020202020200057796A6D6E7B
:10102000696A20727A61726369652020202020201D
:1010300020004B6F6E696563207A61626177792069
:101040002020202020202000437A61732067727ABC
:10105000616E69613A2020202020202000577962AB
:101060006965727A206D6F633A202020202020204D
:101070000020202020323030205720202020202027
:101080002000202020203630302057202020202013
:101090002020002020202038303020572020202001
:1010A00020202000202020203335302057202020F1
:1010B000202020200047727A616E69653A20202046
:1010C00020202020000042C0D9FF43C0DAFFDECF3D
:1010D000F6FFDDCFF7FF0800F550250AD8A443D16D
:1010E00042C0D9FF43C0DAFFDE2A000EDD22000E27
:1010F000776E000E766E76C07AF077C07BF07868F7
:101100007968000E536E000E14D07A8042C0D9FF69
:1011100043C0DAFFDE2A000EDD222ED07A82F6D717
:101120007A84F4D77A86F2D77A88F0D7000E536E95
:10113000010E526E21D042C0D9FF43C0DAFFDECF8C
:10114000F6FFDDCFF7FF0800F550466E476A4750BF
:10115000000AD8A4EBD74650200AD8B4E3D7030A34
:10116000D8B4E2D7080AD8B4DBD7060AD8B4CDD7AA
:101170001D0AD8B4D3D7DAD752505310D8B4DBD71E
:101180007AB07A9242C0D9FF43C0DAFFDECFF6FFD1
:10119000DDCFF7FF0800F5502A0AD8A423D042C0BB
:1011A000D9FF43C0DAFFDE2A000EDD2244C0D9FF9A
:1011B00045C0DAFFDFCF46F0020EDE26DFCF47F074
:1011C000000EDD2246C0D9FF47C0DAFFDECF76F041
:1011D000DDCF77F077AE3FD07A80766C771ED8B0CF
:1011E000772A39D042C0D9FF43C0DAFFDECF08F0FA
:1011F000DDCF09F092EC0BF008C076F009C077F073
:1012000007D042C0D9FF43C0DAFFDE2A000EDD223C
:10121000D00E466EFF0E476E42C0D9FF43C0DAFFC4
:10122000DECFF6FFDDCFF7FF0800F550486E496AC4
:101230004650482647504922495006E10A0E485C6C
:10124000D8B002D0010E01D0000E546E556A545031
:101250005510D8A4D6D742C0D9FF43C0DAFFDECF9D
:10126000F6FFDDCFF7FF0800F550640AD8B40DD0C3
:1012700042C0D9FF43C0DAFFDECFF6FFDDCFF7FF74
:101280000800F550690AD8A43FD042C0D9FF43C036
:10129000DAFFDE2A000EDD2244C0D9FF45C0DAFFA6
:1012A000DFCF46F0020EDE26DFCF47F0000EDD2254
:1012B00046C0D9FF47C0DAFFDECF4AF0DDCF4BF0A2
:1012C000000E4BBEFF0E4C6E4D6E4E6E4F6E506E4E
:1012D000516E40C01CF041C01DF04AC01EF04BC012
:1012E0001FF04CC020F04DC021F04EC022F04FC086
:1012F00023F050C024F051C025F0CDEC09F01CC003
:1013000040F01DC041F0120042C0D9FF43C0DAFFD7
:10131000DECFF6FFDDCFF7FF0800F550250AD8A491
:1013200016D042C0D9FF43C0DAFFDE2A000EDD220C
:10133000000E026E250E016E40C003F041C004F0A5
:10134000E2EC0DF0000E416E010E406E120042C044
:10135000D9FF43C0DAFFDE2A000EDD22000E416E07
:10136000000E406E120042C0D9FF43C0DAFFDECF4C
:10137000F6FFDDCFF7FF0800F550016E026A40C0AE
:1013800003F041C004F0E2EC0DF042C0D9FF43C0CD
:10139000DAFFDE2A000EDD22D5D71EC036F01FC0D0
:1013A00037F020C038F021C039F022C03AF023C015
:1013B0003BF024C03CF025C03DF03DAE02D0010E14
:1013C00001D0000E346E356A34503510D8B410D0C8
:1013D0003D1E3C1E3B1E3A1E391E381E371E366C03
:1013E000000E3722382239223A223B223C223D226B
:1013F00079AE7A9279BE05D0795008E17804D8B0F8
:1014000005D0000E316E010E306E04D078C030F081
:1014100079C031F076C032F077C033F034503510F7
:10142000D8A402D07AA403D03206D8A03306000E86
:101430003F6E1F0E3E6E000E0001E36F7CD03E0635
:10144000D8A03F06C40E3E24D96E000E3F20DA6EAF
:1014500036C001F037C002F038C003F039C004F0E4
:101460003AC005F03BC006F03CC007F03DC008F0B4
:101470000A0E096E000E0A6E000E0B6E000E0C6E48
:10148000000E0D6E000E0E6E000E0F6E000E106E32
:1014900032EC0CF001C026F002C027F003C028F0A7
:1014A00004C029F005C02AF006C02BF007C02CF0BC
:1014B00008C02DF026C013F028C014F08AEC0FF0FD
:1014C0001350300FDF6E3006D8A031063206D8A098
:1014D000330636C001F037C002F038C003F039C01F
:1014E00004F03AC005F03BC006F03CC007F03DC038
:1014F00008F00A0E096E000E0A6E000E0B6E000E4A
:101500000C6E000E0D6E000E0E6E000E0F6E000EB5
:10151000106EEEEC0AF001C036F002C037F003C0E6
:1015200038F004C039F005C03AF006C03BF007C0FF
:101530003CF008C03DF03FBE1FD03F5003E13E04E9
:10154000D8A01AD036503710381039103A103B1046
:101550003C103D10D8A473D731BE05D0315002E104
:101560003004D8B06CD733BE07D0335003E1320417
:10157000D8A002D07AB263D734503510D8A402D0A4
:101580007AA417D03E06D8A03F0634503510D8A410
:1015900004D0000E2F6E2B0E03D0000E2F6E2D0EDA
:1015A0002E6EC40E3E24D96E000E3F20DA6E2EC081
:1015B000DFFF1CC011F01DC012F0C40E3E24136EDC
:1015C000000E3F20146E32C015F033C016F032EC1E
:1015D0000EF011C01CF012C01DF01200000E126EB1
:1015E00010AE12D0101E0F1E0E1E0D1E0C1E0B1E56
:1015F0000A1E096C000E0A220B220C220D220E225A
:101600000F221022010E126E08AE12D0081E071E05
:10161000061E051E041E031E021E016C000E022281
:10162000032204220522062207220822010E121A92
:1016300020EE13F0070EDE6AE806FDE209500A10FC
:101640000B100C100D100E100F101010D8B446D047
:10165000010E116E0AD0D89009360A360B360C36B8
:101660000D360E360F361036112A10AEF4D7D8903C
:1016700013361436153616361736183619361A3606
:101680000950015C0A5002580B5003580C50045882
:101690000D5005580E5006580F5007581050085856
:1016A000D8A011D00950015E0A50025A0B50035ABB
:1016B0000C50045A0D50055A0E50065A0F50075A36
:1016C0001050085A1380D89010320F320E320D325B
:1016D0000C320B320A320932112EC9D71250D8B44B
:1016E00010D01A1E191E181E171E161E151E141EA7
:1016F000136C000E1422152216221722182219220A
:101700001A2213C001F014C002F015C003F016C075
:1017100004F017C005F018C006F019C007F01AC091
:1017200008F01200000E166E000E156E000E0F6E01
:10173000000E0E6E02D0084A092A010E146E08C06F
:10174000F6FF09C0F7FF0800F550200AD8B418D0FA
:10175000F70E0A6EFF0E0B6E08C0F6FF09C0F7FF0A
:101760000800F5500C6E0D6A0A500C260B500D2225
:101770000D5004E1050E0C5CD8A002D0000E146ED2
:1017800014C010F0116A10501110D8B408D0D3D77B
:10179000000E0F6E010E0E6E084A092A2ED008C0E8
:1017A000F6FF09C0F7FF0800F5500A6E0B6A0B50F0
:1017B000000AD8A422D00A502B0AD8B4EDD7060AC2
:1017C000D8B4E6D71AD015C001F016C002F0000E4A
:1017D000046E0A0E036EE9EC0FF008C0F6FF09C0B4
:1017E000F7FF0800F550015E000E025A300E01248A
:1017F000156E000E0220166ECFD7D00E0A6EFF0EA9
:101800000B6E08C0F6FF09C0F7FF0800F5500C6E1C
:101810000D6A0A500C260B500D220D5006E10A0EDF
:101820000C5CD8B002D0010E01D0000E126E136A0B
:1018300012501310D8A4C7D70E500F10D8A40DD033
:1018400015C00AF016C00BF00A1E0B1E0A4A0B2A1E
:101850000AC008F00BC009F0120015C008F016C04D
:1018600009F01200000E126E08AE12D0081E071EFC
:10187000061E051E041E031E021E016C000E02221F
:10188000032204220522062207220822010E126EDC
:1018900010AE10D0101E0F1E0E1E0D1E0C1E0B1EA5
:1018A0000A1E096C000E0A220B220C220D220E22A7
:1018B0000F22102209500A100B100C100D100E10E0
:1018C0000F101010D8B43CD0010E116E0AD0D89071
:1018D00009360A360B360C360D360E360F361036F4
:1018E000112A10AEF4D70950015C0A5002580B506F
:1018F00003580C5004580D5005580E5006580F5000
:10190000075810500858D8A010D00950015E0A504E
:10191000025A0B50035A0C50045A0D50055A0E50DF
:10192000065A0F50075A1050085AD89010320F32EA
:101930000E320D320C320B320A320932112ED3D74D
:101940001250D8B410D0081E071E061E051E041E15
:10195000031E021E016C000E022203220422052235
:1019600006220722082201C001F002C002F003C0D3
:1019700003F004C004F005C005F006C006F007C07F
:1019800007F008C008F01200010E16EC10F0800EEF
:1019900016EC10F05D0E036E100E046E7DEC0EF072
:1019A000C00E16EC10F0930E036E100E046E7DEC5C
:1019B0000EF0000E026EC80E016EA3EC0FF081AAAD
:1019C00005D081B4E1D786EC0DF0DED7C00E16EC61
:1019D00010F0820E036E100E046E7DEC0EF0000E01
:1019E000026EC80E016EA3EC0FF081AA05D081B47F
:1019F000EDD786EC0DF0EAD7C00E16EC10F0A40E71
:101A0000036E100E046E7DEC0EF0000E026EC80E1A
:101A1000016EA3EC0FF081AA05D081B4EDD786EC5E
:101A20000DF0EAD7C00E16EC10F0710E036E100E1A
:101A3000046E7DEC0EF0000E026EC80E016EA3EC7B
:101A40000FF081AA120081B4EDD786EC0DF0EAD731
:101A500039D0800E5E6E000E5F6E010E606E100E4D
:101A6000616E70C062F071C063F072C064F073C0E8
:101A700065F00CEC0FF0010E16EC10F0800E16EC79
:101A800010F0B50E036E100E046E7DEC0EF0C00E5D
:101A900016EC10F0800E036E000E046E7DEC0EF05E
:101AA000030E026EE80E016EA3EC0FF07206D8A0D2
:101AB000730673AE07D07006D8A07106000E736E61
:101AC0003B0E726E70507110D8B404D07250731007
:101AD000D8A4BFD7010E16EC10F0800E16EC10F053
:101AE000320E036E100E046E7DEC0EF0C00E16EC7E
:101AF00010F01B0E036E100E046E7DEC0EF0030E44
:101B0000026EE80E016EA3EC0FF0DCD7000E0001B0
:101B1000C16F000EC06F000EC36F000EC26F0001D8
:101B2000C3BF0AD0C35104E1330EC25DD8A004D0B4
:101B3000000EC36F000EC26FA00E5E6E000E5F6ED1
:101B4000010E606E100E616EC0C062F0C1C063F025
:101B5000C2C064F0C3C065F00CEC0FF0010E16ECCF
:101B600010F0800E16EC10F0480E036E100E046E8E
:101B70007DEC0EF0C00E16EC10F0A00E036E000E01
:101B8000046E7DEC0EF0000E026EC80E016EA3EC2A
:101B90000FF081B803D00001C04BC12B81B605D036
:101BA0000A0E0001C227000EC32381B4B8D7C0C0FB
:101BB00070F0C1C071F0C2C072F0C3C073F028EC05
:101BC0000DF0ADD703500410D8B404D00350041066
:101BD000D8A404D0015023EC10F0120020EE04F041
:101BE0000350D9260450DA22DE50DE10D8B416D0C5
:101BF00020EE04F00350D9260450DA2210EE02F051
:101C00000350E1260450E222DE50E65CE650800AF2
:101C1000096EDE50800A0958D8B0120020EE02F09A
:101C20000350D9260450DA22DECF05F0DDCF06F0CE
:101C300003C0D9FF04C0DAFFDECF07F0DDCF08F024
:101C400005500724D96E06500820DA6E01C0DFFF68
:101C500020EE02F00350D9260450DA22DE2A000ECC
:101C6000DD2212007AA00AD013C00AF014C00BF0D3
:101C700011C00CF012C00DF06EEC0FF016BE05D0C6
:101C800015C01AF016C01BF004D0000E1B6E000E1B
:101C90001A6E000E196E000E186E0CD0000E026E39
:101CA000200E016E11C003F012C004F0E2EC0DF042
:101CB000184A192A1A50185C1950800A176E1B50BE
:101CC000800A1758D8A0EAD77AB00AD013C00AF011
:101CD00014C00BF011C00CF012C00DF06EEC0FF040
:101CE00013C001F014C002F0D4EC0FF01A5001241C
:101CF000116E1B500220126E1200000E076E1AD0D9
:101D000007500324056E000E0420066E05C0F6FF82
:101D100006C0F7FF000EF86E0F0EF76403D0080040
:101D2000F55005D0F6CFE1FFF7CFE2FFE7500DEC1D
:101D300010F0072A07500324056E000E0420066EDB
:101D400005C0F6FF06C0F7FF000EF86E0F0EF76431
:101D500003D00800F55005D0F6CFE1FFF7CFE2FF42
:101D6000E7500009D8B41200CBD784928494000EB7
:101D7000026E140E016EA3EC0FF08482380E16EC86
:101D800010F0000E026E050E016EA3EC0FF0380E7F
:101D900016EC10F0000E026E010E016EA3EC0FF0B7
:101DA000380E16EC10F0080E16EC10F00F0E16ECB4
:101DB00010F0010E16EC10F0380E16EC10F0800E3C
:101DC00016EC10F0120058C05CF059C05DF0000E27
:101DD000756E000E746E12D056C040F057C041F0C0
:101DE0005C0E426E000E436E5AC044F05BC045F07C
:101DF00063EC08F040507426415075225CC0F6FF39
:101E00005DC0F7FF0800F5500009D8A4E5D774C0FD
:101E100056F075C057F01200620E686E000E696EC3
:101E20005EC06AF05FC06BF0000E6D6E000E6C6EEF
:101E3000000E6F6E000E6E6E6A0E566E000E576EBE
:101E400060C058F061C059F0680E5A6E000E5B6EAB
:101E5000E3EC0EF06C505E24D96E6D505F20DA6EAC
:101E6000000EDF6E1200010E076E200E0118021028
:101E7000D8B414D0F70E036EFF0E046E01C005F047
:101E800002C006F00350052604500622065004E165
:101E9000050E055CD8A002D0000E076E07C001F049
:101EA000026A1200010EC26E0B0EC16E010EC06EF0
:101EB000C30E926E3F0E936E010E946E000E956EE1
:101EC000000E966EB5EC0EF0010E16EC10F002D07E
:101ED000C4EC0CF081A200EF00F0FAD7000E106EF7
:101EE000000E0F6E0BD00EC001F0026A0CC003F0A2
:101EF0000DC004F0E2EC0DF00F4A102A0F500A2436
:101F0000D96E10500B20DA6EDF500E6E0E50D8B422
:101F10001200E9D714BE05D0145010E11304D8B054
:101F20000DD013C015F014C016F0151E161E154A5C
:101F3000162A15C013F016C014F0120013C013F0C7
:101F400014C014F01200000E046E000E036E0DD0CB
:101F5000000E056E00F000F000F000F000F0052A21
:101F6000C70E0564F7D7034A042A0150035C0250E8
:101F70000458D8B01200ECD7D00E036EFF0E046EDA
:101F800001C005F002C006F00350052604500622E9
:101F9000065006E10A0E055CD8B002D0010E01D051
:101FA000000E016E026A120001C003F002C004F0CC
:101FB00002D0014A022A01C0D9FF02C0DAFFDF5075
:101FC000D8A4F7D70350015C016E04500258026E8A
:101FD000120001500302F3CF05F0F4CF06F00150D8
:101FE0000402F350062602500302F350062605C0F1
:101FF00001F006C002F0120000EEC4F0200EEE6AFE
:10200000E806FDE100EE74F0080EEE6AE806FDE178
:10201000000EF86E000152EF0FF0026E8482025043
:102020001FEC10F08484849284821200026E8482F9
:1020300002501FEC10F08494849284821200016E8E
:0820400001C083FF1200120031
:020000040020DA
:08000000FFFFFFFFFFFFFFFF00
:020000040030CA
:0E000000FF06181EFF8180FF0FC00FE00F40AB
:00000001FF
